:020000040800F2
:10000000F00A002039020008F5170008ED17000873
:10001000F1170008A1150008D11900080000000020
:10002000000000000000000000000000FD170008B4
:10003000A515000800000000F917000801180008C5
:10004000530200085302000853020008530200083C
:10005000530200085302000853020008530200082C
:10006000530200085302000853020008530200081C
:10007000530200085302000853020008530200080C
:1000800053020008530200085302000853020008FC
:1000900053020008530200085302000853020008EC
:1000A00053020008530200085302000853020008DC
:1000B00053020008530200085302000853020008CC
:1000C00053020008530200085302000853020008BC
:1000D00053020008530200085302000853020008AC
:1000E00053020008530200085302000800F002F80F
:1000F00000F092F80AA090E8000C82448344AAF130
:100100000107DA4501D100F087F8AFF2090EBAE82D
:100110000F0013F0010F18BFFB1A43F0010318473B
:1001200084470000A4470000103A24BF78C878C173
:10013000FAD8520724BF30C830C144BF04680C60ED
:10014000704700000023002400250026103A28BF35
:1001500078C1FBD8520728BF30C148BF0B60704739
:100160006E2900F0D581702900F01F83662904F004
:100170009980652904F09680672904F093806129AD
:1001800004F0928003681B0A28BF41F080016929AE
:1001900000F08281642900F07F81752900F07C8164
:1001A0006F2900F0AD82782900F0EB82E92900F098
:1001B0004782E42900F04482F52900F04182EF29CA
:1001C00000F0AA82F82900F0EA820368DB0928BF60
:1001D00041F08001632901F02180732901F026801C
:1001E000E32901F03180F32901F0368000207047C7
:1001F0001FB501F0AFF804000020002103F046FD18
:10020000401C60600020002103F02AFDE06001F046
:10021000B5F91FBD10B510BD01F06EF81146FFF71E
:10022000E7FF02F0F1FC01F04BF903B4FFF7F2FF36
:1002300003BC01F04FF90000094880470948004716
:10024000FEE7FEE7FEE7FEE7FEE7FEE7FEE7FEE786
:10025000FEE7FEE704480549054A064B70470000E3
:10026000CD190008ED000008F0040020F00A00207D
:10027000F0060020F00600207CB51D4616460C0056
:10028000009001D02044401E074B7B442A4669461B
:100290000190304600F055F905461CB10020694632
:1002A00000F062F928467CBDE502000040EA010347
:1002B00010B59B070FD1042A0DD310C808C9121F0F
:1002C0009C42F8D020BA19BA884201D9012010BD49
:1002D0004FF0FF3010BD1AB1D30703D0521C07E016
:1002E000002010BD10F8013B11F8014B1B1B07D17A
:1002F00010F8013B11F8014B1B1B01D1921EF1D1EB
:10030000184610BD40EA0103024630B59B0710D1E4
:100310004FF0013400E008C208C91D1B9D4315EAD7
:10032000C41FF8D013F0FF0102F8011B0DD01B0A07
:10033000F8E711F8013B002B02F8013B05D011F85A
:10034000013B002B02F8013BF3D130BD4FF0013CE3
:1003500050F8042B51F8043B9A4221D1A2EB0C0334
:10036000934313EACC1317D150F8042B51F8043BF4
:100370009A4215D1A2EB0C03934313EACC130BD191
:1003800050F8042B51F8043B9A4209D1A2EB0C031C
:10039000934313EACC13DBD04FF00000704700BF4B
:1003A000D01A01BAB1FA81F101F0180122FA01F074
:1003B000CB40DBB2C0B2C01AC1F120012CFA01F36C
:1003C000D11A914311EAC311E6D1704770477047C3
:1003D000704770B5044685690068C10601D53026AE
:1003E00000E02026C00707D070BDD4E901213046C7
:1003F0009047206A401C20626D1EF6D570BD70B516
:10040000044685690078C00707D170BDD4E9012191
:1004100020209047206A401C20626D1EF6D570BDDA
:1004200009684A0501D540B27047C905FCD500B23C
:10043000704709684A0501D5C0B27047C905FCD5A7
:1004400080B2704770B50C460546012A05D0287861
:10045000800600D5EA69002302E0012305E05B1C69
:10046000934202D2E05C0028F9D1A869E618C01ACC
:10047000A861286A184428622846FFF7AAFF04E00A
:10048000D5E9012114F8010B9047B442F8D328466E
:10049000FFF7B5FF70BD00002DE9F04106460024CE
:1004A00010687529314616A510D0FFF7B9FF00284E
:1004B00002DA404213A507E031688A0701D512A588
:1004C00002E0490704D511A5012401E0FFF7B1FFBF
:1004D00000210A2206F1240709E0B0FBF2FCB0FB80
:1004E000F2F302FB1C00303078541846491C0028F7
:1004F000F3D123462A463046BDE8F04100F09FBACA
:10050000000000002D0000002B0000002000000073
:1005100011680268006A530501D508700AE0D30526
:1005200001D5088006E0130603D5C217C1E9000211
:1005300000E008600120704701694A1C02610878E8
:10054000704700B58FB0CDE9013100210591054913
:100550007944CDE903101146684600F031F90FB037
:1005600000BD0000E5FFFFFF0A6802F8010B0A600A
:100570007047D1E900239A4202D2531C0B601070DD
:10058000704700002DE9FF5F15468A460446DFF8F4
:10059000AC80F8440027D8E900103E46CDE90010B1
:1005A00010E03AF816106A4602A800F059FE411C05
:1005B00007D02178890603D5E269391891420DD810
:1005C0000744761C2078800602D5E069B84205DD34
:1005D000AE42E6DB3AF816000028E2D1A069C01B63
:1005E000A0612046FFF7F5FED8E90010CDE9001024
:1005F000002017E03AF818106A4602A800F030FE12
:10060000B0F1FF3F81460BD000250DF1080B05E04E
:10061000D4E901211BF8050090476D1C4D45F7D327
:1006200008F10100B0428046E4DB206A38442062D1
:100630002046FFF7E4FEBDE8FF9F0000163D0000E6
:100640002DE9F0418046D21D22F007020025D2E9B3
:100650000002F52915A614D0011E72F1000106DA78
:100660000023D0EB030063EB020211A608E0D8F8E8
:1006700000108B0701D50FA602E0490701D50EA691
:1006800001251146002408F1240704E000F092F946
:1006900030323A55641C50EA0102F7D12B463246FB
:1006A00021464046BDE8F04100F0C9B90000000015
:1006B0002D0000002B0000002000000030B40021BD
:1006C00000F1240408E002F00705D208303542EAC0
:1006D0004372DB086554491C52EA0305F3D10468F0
:1006E000002310A2250708D504F020040C4304D0F1
:1006F000C46901230CA2641EC46130BC00F09FB920
:1007000010B5044621461068FFF793FE02462046C6
:10071000BDE810400023D1E7D21D22F00701D1E946
:100720000023CBE70000000030000000F0B40D46CD
:100730000188090502D5214C7C4402E01F4C7C4411
:100740000E34002100F1240608E002F00F07120920
:10075000E75D42EA03721B097754491C52EA03071A
:10076000F3D102780023120704D5702D06D009B109
:10077000022311342246F0BC00F061B90123103489
:10078000F8E770B504460D4621461068FFF751FEA4
:10079000024629462046BDE870400023C6E7D21D28
:1007A00022F00703D3E90023C0E70368126843F08F
:1007B000200303600823C3610023B7E7783B0000F0
:1007C0002DE9F05F894604464FF0000ADFF874B166
:1007D000FB44C0F820A02046E1688847002874D078
:1007E000252806D0D4E901219047206A401C2062C8
:1007F000F1E700265F462046E16888472028054645
:1008000007DB312D05D2781910F8200C08B106430A
:10081000F1E7B00701D526F00406C4F81CA00027B4
:10082000C4F818A02A2D09D0284603F011FA38B3CD
:1008300004EB8708303DC8F8185019E059F8041B3C
:10084000204604EB87029161E1688847012F054645
:1008500018D1E069002820DA26F020061DE0D8F83B
:10086000180000EB800005EB40003038C8F8180095
:100870002046E1688847054603F0EAF90028EED1F2
:10088000012F0AD02E2D08D12046E16888477F1C11
:100890000546022F46F02006C4DBA069002803DAD3
:1008A000404246F00106A061F00701D026F0100694
:1008B0006C2D0BD0682D09D04C2D39D06A2D35D038
:1008C000742D35D07A2D33D016E038E0E1682F460C
:1008D00020468847B842054609D16C2F26D04FF4F0
:1008E0008060E168064320468847054604E06C2F97
:1008F0001AD04FF4807006430DB3A5F141001928BA
:1009000002D8203546F400664A462946204626602D
:100910004E46FFF725FC80B101280BD0F61D26F0CE
:10092000070000F1080956E74020E4E78020D8E7F7
:100930000020D6E706F104094DE7284652E7206A71
:10094000BDE8F09F083B000010B5203AC0F00B80D6
:10095000B1E81850A0E81850B1E81850A0E81850B5
:10096000203ABFF4F5AF5FEA027C24BFB1E818502B
:10097000A0E8185044BF18C918C0BDE810405FEA8D
:10098000827C24BF51F8043B40F8043B08BF704709
:10099000D20728BF31F8023B48BF11F8012B28BF0E
:1009A00020F8023B48BF00F8012B70470048704711
:1009B0000800002030B5B0F10A0271F100034FEADF
:1009C000900E4EEA817EB0EB0E0061EB91014FEA92
:1009D000101E4EEA017E10EB0E0041EB11114FEAA2
:1009E000102E4EEA016E10EB0E0041EB11214FEA82
:1009F000104E4EEA014E10EB0E0041EB1141401833
:100A000041F100014FEAD00040EA41704FEAD101C4
:100A10004FEA810444EA907410EB800544EB010432
:100A20006D1944EB0404521BA3414FF0000348BF6F
:100A30000A3200D530BD401C41F1000130BD2DE926
:100A4000F0470D4699469246044600F12408016895
:100A5000880604D5E06921F01001216000E0012042
:100A6000A84201DD471B00E00027A1697A1902EBCB
:100A70000900081AA0612078C00602D42046FFF7BA
:100A8000A8FC002608E0D4E901211AF806009047E6
:100A9000206A401C761C20624E45F4DB2078C0069C
:100AA0000AD52046FFF795FC06E0D4E90121302065
:100AB0009047206A401C2062381EA7F10107F4DC31
:100AC00007E0D4E9012118F805009047206A401C8E
:100AD0002062281EA5F10105F3DC2046FFF78FFCFC
:100AE0002078000602D50220BDE8F0870120FBE750
:100AF0002DE9FF4F0C461E464FF0FF378BB0D2E971
:100B00000001DDF860800A908A46C1F30A5505B9F4
:100B10003D46002108464FF00000BAF1000F00F4F6
:100B2000400005DA00EB80004FF4400101EA50007C
:100B30004FEA9059B9F1010F00DDB9460A9850EA21
:100B40004A000ED044F61050A5F2FF3545432F144D
:100B5000B8F1000F1ED07542291E1EDDC9F100023A
:100B60001CE0B8F1010F4FF0000001D0302103E08C
:100B7000F24305E02154401CB042FBDB304600222A
:100B8000002121540B99C1F80880C1E900200FB061
:100B9000BDE8F08FBD1B6D1CDEE74A4600DA6942F6
:100BA00006A800F01BFC06AB93E8070003AB83E844
:100BB000070050460A9902F06FFC8DE80700A0F587
:100BC00000501F3800900398002D0ADD42F21F01EB
:100BD0004A460844002303A90390684602F0D8FE61
:100BE00009E0A0F500504A461F38002303A90390EE
:100BF000684602F0E2FE8DE807000004000C03D016
:100C00004FF0FF30410800E01046B8F1000F03D06C
:100C10000022009215461EE0751E05D4FFF7CAFE9D
:100C2000303262556D1EF9D5B3460122084302D019
:100C300000227F1C04E02078302801D100227F1E92
:100C4000002A099784D01DE0112D07DAFFF7B2FEC4
:100C5000303262556D1C50EA0102F5D1084302D0D2
:100C60000098C8B10EE00021681E05E0235C625CBC
:100C700063542254401E491C8142F7DBAB46A81B3B
:100C8000401E0990002004F80B000B98099AC0F848
:100C90000880C0E9002B7AE711264FF0000857E7DB
:100CA0002DE9F04F88460446D21D22F0070191B08D
:100CB000D1E90001CDE90A0102F0B6FF02460B9826
:100CC000C00F01D02D2007E02068810701D52B201F
:100CD00002E0202101EAC000032A099001D0072A7E
:100CE00005DB03464146204600F038FB0BE1207847
:100CF000800601D5E06900E00620B8F1650F814665
:100D000006D0B8F1660F18D0B8F1670F70D131E096
:100D10000020B9F1110F009001DB112301E009F16E
:100D200001030AAA01A90CA8FFF7E2FEDDE90C7095
:100D3000002609F10105834647E001204B4600905B
:100D40004FF000470AAA01A90CA8FFF7D1FEDDE980
:100D50000DB00C995D46002610B909F101000D187F
:100D6000B9EB050003D4C0F1FF3609F10105A5EB8D
:100D700009002BE0B9F1010F01DA4FF00109002061
:100D8000B9F1110F0090484601DD112300E0034640
:100D90000AAA01A90CA8FFF7ABFEDDE90C704D46CD
:100DA00000268346207800070AD4AB4500DA5D466A
:100DB00001A8012D04DD411911F8011C302907D0CB
:100DC0004F4502DA17F1040F04DA012082460FE0E2
:100DD0006D1EEEE7002F02DCED1B3E4403E0781CA5
:100DE000A84200DD7D1CB81B00F1010A4FF000474E
:100DF0002078000703D4AA4501DB4FF0FF3A002119
:100E0000B7F1004F0DF143088DF8431024D00220B4
:100E10002B23002F01DA7F422D230A21021EA0F18D
:100E2000010000DC5FB197FBF1FC97FBF1F201FBE5
:100E30001C7C17460CF1300C08F801CDEEE7A8F148
:100E4000010003702188090501D5452100E06521D5
:100E5000A0F1010800F8011C09980FA9A1EB0807EF
:100E6000FF1D00B10120411901EBEA70A16938446E
:100E7000081A401EA0612078C00602D42046FFF761
:100E8000A8FA099828B1D4E901219047206A401CAA
:100E900020622078C00622D52046FFF79AFA1EE08D
:100EA000002E04DBB34502DD01A8805D00E03020A8
:100EB000D4E901219047206A401C2062761CAAF1E7
:100EC00001005FEA000A0AD100F044FAC068016834
:100ED000405CD4E901219047206A401C2062281E12
:100EE000A5F10105DCDC07E0D4E9012118F8010BCC
:100EF0009047206A401C2062381EA7F10107F3DCEE
:100F00002046FFF77CFA032011B041E62DE9F04FAF
:100F100004460D46D21D22F0070089B0D0E90097A3
:100F20004846394602F080FE0246F80F01D02D23D4
:100F300007E02068810701D52B2302E0202101EA88
:100F4000C0038DF820300BB1012000E00020032AFF
:100F5000824601D0072A04DB2946204600F0FEF92C
:100F60003FE12078800601D40D2500E0E569C7F354
:100F70000A560D2D49DA00214FEA175B08464FF05B
:100F80000000002F00F4400007DA00EB80004FF46F
:100F9000400100EBD07001EA60008115012901DDFC
:100FA0004FF0FF3100224FEA850CBCF1180F06D339
:100FB0001346ACF118004FF08052C24003E04FF4EA
:100FC000801323FA0CF30CF10C0CBCF1200F04D3AA
:100FD000ACF1200C09FA0CF001E007FA0CF0002942
:100FE0004FF0004801DD18B90FE00ED140450CD399
:100FF00019EB02095F4121B9404502D19F4329EA1B
:101000000209BBEB175F00D0761C2088000502D5D3
:101010007B48784402E07A487844193808AA30239B
:1010200002F80A30037C0AF10101002E0AF1020ADB
:1010300053546A4602DC4FF0300101E04FF03101B9
:101040004FF001088DF8001002D0A6F2FF3603E041
:1010500059EA470100D06B4E002D02DC21780907C8
:1010600004D54FF002082E218DF80110C44600214E
:101070000BE0C7F303433F01C35C491C6D1E02F83C
:101080000830052908F1010801DA002DF1DC002102
:101090000CE000EB1973491C1B786D1E082902F83F
:1010A00008304FEA091908F1010801DA002DF0DCD7
:1010B00021688B0602D516E0A8F10108E04505DDA0
:1010C00002EB080313F8013C302BF5D0B8F1000F08
:1010D00009DD02EB080313F8013C2E2B03D10907AD
:1010E00001D4A8F10108002D05DD3E2102F8081009
:1010F0006D1E08F10108407C002E02F8080008F17E
:10110000010804DA2D20764202F8080002E02B20C4
:1011100002F808000A214FF47A70864208F10108AB
:101120000BDB96FBF0F3303302F8083096FBF0F35C
:1011300008F1010800FB136601E0642E0CDB64205B
:1011400096FBF0F3303302F8083096FBF0F308F129
:10115000010800FB136601E00A2E06DB96FBF1F0A6
:10116000303002F8080008F1010896FBF1F001FBAD
:101170001060303002F80800A16908F1010808EB9E
:10118000050202EB0A00081AA0612078C00602D40A
:101190002046FFF71EF9216A08AE01EB0A00206223
:1011A00004E0D4E9012116F8010B9047BAF1010AD5
:1011B000F7D22078C00602D52046FFF70AF96E461E
:1011C00009E016F8010B3E280FD0D4E90121904721
:1011D000206A401C2062B8F10108F2D22046FFF7D5
:1011E0000EF909B00320BDE8F08F206A2844206280
:1011F00003E0D4E90121302090476D1EEBD3F8E7DE
:10120000EA32000002FCFFFF10B5436913B1AFF3EF
:10121000008001E0FFF716F9012010BD127800F1FF
:1012200024010A7000224A700122EDE711684FF094
:10123000FF32E9E710B5436913B1AFF3008001E075
:10124000FFF7A0F9012010BD128800F1240182846B
:101250000022C2840122EDE711684FF0FF32E9E776
:101260002DE9F04116460C46054600F06BF8036880
:1012700093F80101012807D0FF2C12D8185D80B126
:1012800001202C70BDE8F081D3F8070132462146D9
:1012900003F20713C7182846BC46BDE8F0410023F7
:1012A00060474FF0FF30EDE74FF0000200B5134606
:1012B00094469646203922BFA0E80C50A0E80C5076
:1012C000B1F12001BFF4F7AF090728BFA0E80C5027
:1012D00048BF0CC05DF804EB890028BF40F8042B20
:1012E00008BF704748BF20F8022B11F0804F18BF8D
:1012F00000F8012B704770477546FFF757FBAE4665
:1013000005006946534620F00700854618B020B511
:10131000FEF7A0FFBDE820404FF000064FF00007A9
:101320004FF000084FF0000BAC46ACE8C009ACE849
:10133000C009ACE8C009ACE8C00921F007018D463E
:101340007047000010B500F005F8001D10BD00BF8B
:101350003D29000000487047280000202DE9F04199
:101360001F46044603260168072A01F4006004DBD7
:1013700008B116A505E016A503E008B115A500E023
:1013800015A521F010002060A069C01EA0610FB15A
:10139000401EA0612046FFF71CF84FB1D4E901219F
:1013A00038469047206A401C2062C01C206206E03C
:1013B000206AFAE7D4E9012115F8010B9047761E5F
:1013C000F8D22046FFF71BF8BDE8F0814E414E00F1
:1013D0006E616E00494E4600696E66002DE9F04769
:1013E000814616468AB0354878440DC88DE80D0010
:1013F00032487844801C03AC0DC884E80D0041F6E7
:101400009B300844372190FBF1F290FBF1F5A5F1F8
:10141000800501FB12041B3C02D56442012000E060
:101420000020DFF898A080460027FA44AAF1BE0AFF
:101430000EE0E0070AD03246684607EB4701012379
:101440000AEB810102F0B9FA8DE8070064107F1CF5
:10145000002CEED1194F7F44AE3F19E0E80715D0BC
:1014600007EB04100DF1180A90E80E008AE80E0050
:10147000C068F04201D1981908903246012306A9AC
:1014800003A802F09AFA03AB83E807006D10641C0E
:10149000002DE3D14FF0010332466946B8F1000F49
:1014A00003A802D002F074FA01E002F086FAC9E95A
:1014B0000001C9F808200AB0BDE8F087A42F000099
:1014C00010B50446AFF300802046BDE81040FEF79B
:1014D000ACBE000001491820ABBEFEE726000200AA
:1014E000032A40F2308010F0030C00F0158011F850
:1014F000013BBCF1020F624498BF11F801CB00F828
:10150000013B38BF11F8013BA2F1040298BF00F87B
:1015100001CB38BF00F8013B11F003033FF414AADC
:10152000083AC0F0088051F8043B083A51F804CB5F
:10153000A0E80810F5E7121D5CBF51F8043B40F825
:10154000043BAFF30080D20724BF11F8013B11F830
:1015500001CB48BF11F8012B24BF00F8013B00F874
:1015600001CB48BF00F8012B704702F0FF0343EAAC
:10157000032242EA0242FFF799BE000070B5064C12
:101580007C44064D7D4404E02046016808448047C1
:10159000241DAC42F8D170BD6C3400006C340000E6
:1015A000FEE70000704700002DE9F04F82B0D1F84F
:1015B00000E0BEF1000F00F0158141F20042C4F2DC
:1015C0000102042340F2004C904208BF0323C4F2FE
:1015D000010C0093012300254FF0010A4FF0000990
:1015E00041E0012405F00C030F279F402EEA070776
:1015F00004FA03F33B4342F826304E6840F20C47AE
:10160000F202DCF8082054BF22EA080242EA08028B
:10161000C4F20107CCF808203A68B30254BF22EAAA
:10162000080242EA08023A60B303DCF8042054BF1F
:1016300022EA080242EA0802F303CCF80420DCF8AC
:1016400000204FF0010354BF22EA080242EA0802D8
:10165000CCF80020D1F800E004353EFA0AF20AF195
:10166000010A00F0BF80AAF1010B03FA0BF81EEA91
:10167000080FEFD04A684FF6FF77C1F21007BA4261
:1016800030DC122A70D80FF2080707EB8207BF463A
:1016900000F04EB800F022B800F058B800F05AB888
:1016A00000F062B800F060B800F05EB800F05CB81E
:1016B00000F05AB800F058B800F056B800F054B82E
:1016C00000F052B800F050B800F04EB800F04CB83E
:1016D00000F04AB800F041B800F043B8D1F80C90DF
:1016E00042E000BF4FF6FF77C1F22107BA420FDC9C
:1016F0000027C1F21107BA421AD00027C1F212071F
:10170000BA4215D00027C1F22107BA4210D02BE00F
:101710000027C1F22207BA420AD00027C1F23107DE
:10172000BA4205D00027C1F23207BA421CD100BF2D
:101730008A6842B1012A14BFC0F81480C0F8108032
:101740004FF0080910E04FF004090DE0CA6802F1FB
:10175000080909E04FF0000906E0CA6802F104092F
:1017600002E0CA6802F10C092A460746BBF1080FDD
:1017700024BF203A04373E680F249440A64309FA58
:1017800002F232433A60CA79D2067FF563AF41F282
:101790001803C4F202031A684FEA9B0642F00102E2
:1017A0001A601A6840F6000302F001020192019AE1
:1017B000ACF57E7252F826E0C4F2010398420FD0D5
:1017C00040F60043C4F2010398423FF40AAF41F2ED
:1017D0000003C4F20103009C984208BF022401E701
:1017E0000024FFE602B0BDE8F08F0000FEE7000035
:1017F000FEE70000FEE700007047000070470000B1
:10180000F0B581B040F26C00C2F20000016840F215
:10181000700601310160C2F20006D6E9000140F213
:101820007802C2F200020130136841F1000140F277
:101830007C04C6E90001581CC2F20004022888BFDB
:10184000002021681060481C05282060C0F0A88096
:1018500000F0FEF840F2A045C2F200052968042914
:1018600000F29C80C0CE0FF2080202EB8102974684
:1018700000F008B800F00AB800F025B800F03EB853
:1018800000F050B8002840F0898064E000285FD163
:1018900040F2A840C2F2000003C8301A67EB010111
:1018A0000F3871F1000079D30220286040F2B04077
:1018B000C2F20000C0E9006740F2C040C2F200007E
:1018C000002101706AE000284ED00420286040F218
:1018D000C040C2F20000007840F2B841C2F20001FC
:1018E0000028C1E9006759D140F2B040C2F20000BF
:1018F0000068301A322851D303202AE000284DD046
:1019000040F2C840C2F200000068002818BF00F092
:101910008FFA0420286040F2B840C2F20000C0E90B
:1019200000673BE0B8B140F2B840C2F2000003C823
:10193000301A67EB01010F3871F100002ED340F22D
:10194000D840C2F200000068002818BF00F00AFE6C
:101950000020286022E00120286040F2A840C2F266
:101960000000C0E9006719E040F2C045C2F200057E
:10197000287898B940F2B040C2F200000068301AEE
:10198000B0F57A7F0AD340F2D040C2F2000000687E
:10199000002818BF00F06AFE012028700020206097
:1019A00040F28000C2F2000001680131B1F57A7F97
:1019B000016008D343F20001C4F200014AF6AA22F2
:1019C0000A600021016001B0F0BD00007047000016
:1019D000FEE70000F0B585B040F2884041F2000417
:1019E000C2F20000C4F20104046040F29840C2F266
:1019F00000000021012501604FF4005040F28C46A8
:101A000040F29047CDE901050320C2F20006C2F280
:101A10000007049001A9204635703D700395FFF73B
:101A2000C3FD30783978002818BF4FF400500029E2
:101A300008BF00042061387840F2944125EA000094
:101A4000C2F20001087005B0F0BD000000F022B83D
:101A500040F60840C4F201000068C0F3003070474F
:101A600082B0B0B582B040F208158C46C2F20005D3
:101A70000446CDE9062306AB284680216246019341
:101A8000FEF7FAFB01462846A04702B0BDE8B04089
:101A900002B070472DE9F04F81B083464EF2180036
:101AA000CEF200000C4650F8041C0668002243F2F7
:101AB000F87307E03244D21BBE4298BF0A449A42F0
:101AC0003E460CD20768BE42F4D10768BE42F1D14F
:101AD0000768BE42EED10768BE42F3D0EAE740F2A3
:101AE0008C1AC2F2000A9AF80000002851D1032093
:101AF000CAF81000CAF8140044F6360140F2342047
:101B0000C0F60001C2F20000CAF81810CAF81C00A2
:101B10004FF48070CAF820000020CAF82800CAF8E4
:101B20002400CAF82C00CAF8601040F23431C2F226
:101B30000001CAF864105321CAF86800CAF870009E
:101B4000CAF86C00CAF874008AF8001045214722D0
:101B50008AF801108AF802208AF803208AF8041013
:101B6000522120228AF805108AF806208AF80710E8
:101B700054218AF808108AF809108AF80A008AF8AD
:101B80000B008AF80C008AF80D008AF80E008AF81B
:101B90000F00EFF311894FF0200181F31188DAF87B
:101BA0002C0002280BD001282DD000287ED1DAF895
:101BB0002450DAF82800A84230D9E94332E0DAE9C3
:101BC0000787DAF8245000BFDAF82800E9434618FE
:101BD000A84298BF3E44781B864228BF0646A642CC
:101BE00028BF264608EB050059463246FFF778FC29
:101BF0007019A41BC51B18BF0546002CB344E3D1C4
:101C0000CAF8245052E0DAF82450DAF82810A94231
:101C10001AD9EA43DAF8200011441AE0DAF8201061
:101C2000EA4310440844A04240D3DAE90780461B47
:101C3000A64208EB05002CD959462246FFF750FC76
:101C40002C44CAF8244031E0DAF82000EA43114479
:101C50000144A14238BF0C46DAF81C80461BB4424E
:101C600008EB050007D259462246FFF739FC2C4401
:101C7000CAF824401AE059463246FFF731FCA41B4B
:101C80000BEB060140462246FFF72AFCCAF8244027
:101C90000CE059463246FFF723FCA41B0BEB060170
:101CA00040462246FFF71CFCCAF8244089F31188FD
:101CB00001B0BDE8F08F0000F0B540F28811C2F22B
:101CC00000010968DDF818C0DDF814E0D9B140F270
:101CD00088148142C2F2000417D00E463768C7B19B
:101CE0008742354612D03E689EB186423D460DD0B1
:101CF000376877B18742354608D03E684EB1864294
:101D00003D46EBD102E0002103E025460168296051
:101D1000216840F27004C2F2000430CCC0F810E038
:101D2000A4186B41C0E90243C0F814C039B3D1E92B
:101D30000227121B77EB030227D20A6862B3D2E9AB
:101D400002763F1B76EB030729D2116851B3D1E924
:101D500002763F1B76EB030727D20A683AB3D2E933
:101D600002763F1B76EB030724D2116829B3D1E931
:101D700002763F1B76EB0307DFD3134609E040F200
:101D800088130021C2F2000303E040F28813C2F27C
:101D9000000301601860F0BD0B460021F9E70B4617
:101DA0001146F6E700211346F3E71346F1E70B4629
:101DB0000021EEE70B461146EBE700211346E8E76A
:101DC00080B582B040F2984EC2F2000EDEF80020DC
:101DD00002B340F2944CC2F2000C40F28C419CF8E9
:101DE0000030C2F2000109785A1E18BF01220029F2
:101DF00018BF4FF40051012B41F21003C4F201034C
:101E000018BF09041960DEF800108CF800200139B1
:101E1000CEF8001041F6C152C0F600020021009237
:101E2000142200230191FFF747FF02B080BD00009C
:101E300010B540F27000C2F2000042F22164D0E915
:101E40000023C0F6000444F29E61C0F60001204663
:101E5000FFF706FE44F22C6144F65C02C0F6000176
:101E6000C0F600022046FFF7FBFD44F21F6144F676
:101E70002202C0F60001C0F600022046FFF7F0FD86
:101E800044F2ED51C0F600012046A722FFF7E8FD1D
:101E900044F2CC71C0F600012046FFF7E1FD44F6A4
:101EA0003001C0F600012046FFF7DAFD44F2AA61D6
:101EB000C0F600012046FFF7D3FD44F2E271C0F600
:101EC00000012046BDE81040FFF7CABD2DE9F04FE4
:101ED000ADF21C4D044640F27000C2F2000042F226
:101EE0002165D0E90023C0F6000544F29E6140F66A
:101EF000100AC0F600012846C4F2010AFFF7B0FD3F
:101F000044F22C6144F63F02C0F60001C0F6000224
:101F10002846FFF7A5FD44F21F6144F60E02C0F605
:101F20000001C0F600022846FFF79AFD44F2ED5189
:101F3000C0F6000128460C22FFF792FD44F2CC7156
:101F4000C0F600012846FFF78BFD44F2FA51C0F6B7
:101F500000012846FFF784FD44F2AA61C0F60001A3
:101F60002846FFF77DFD44F2E271C0F600012846E5
:101F7000FFF776FD40F29840C2F200000A210160AE
:101F80004FF00070CAF800009F2000F0D1FBFF2046
:101F900000F0CEFB0546FF2000F0CAFB000240EA3D
:101FA0000545FF2000F0C4FB05444FF40070CAF85B
:101FB000000044F2DC7344F2170741F64D2044F26E
:101FC0005E6144F2D476C0F60003C0F2EF07C0F6BB
:101FD0000000C0F600012A46C0F60006BD4208BF58
:101FE0003346FFF73DFDBD4240F0B78041F64D203E
:101FF00044F2EC41C0F60000C0F60001FFF730FDEE
:1020000045F6A520C0F6F0700690002005904FF42C
:10201000805000F0F7FC40B141F64D2044F2FD3114
:10202000C0F60000C0F6000195E006A94FF480500C
:10203000042200F0E9FB40B141F64D2044F21C417E
:10204000C0F60000C0F6000185E04FF00070CAF84D
:102050000000032000F06CFB002000F069FB102062
:1020600000F066FB002000F063FBFF2000F060FB47
:102070008DF81400FF2000F05BFB8DF81500FF20A9
:1020800000F056FB8DF81600FF2000F051FB8DF894
:102090001700002000F078FD4FF40071CAF800101E
:1020A00040B141F64D2044F23941C0F60000C0F67F
:1020B000000150E0DDE905509DF816C09DF81710AD
:1020C00044F2D777C0F60007A84241F64D259DF8A7
:1020D00014209DF8153008BF3746CDE900C1C0F681
:1020E000000544F23961C0F6000128460297FFF767
:1020F000B7FC44F29941C0F600012846FFF7B0FC56
:1021000000F0C0FCF8B94FF000750520CAF8005087
:1021100000F00EFBFF2000F00BFB4FF4007610F0F8
:102120001C0FCAF800600ED1C720CAF8005000F09A
:10213000FFFA0420CAF8006000F026FD054600F012
:10214000E3FC284323D041F64D2044F2E031C0F6B1
:102150000000C0F60001FFF783FC40F28030C2F2BD
:10216000000001784FF47A72B1FA81F149090170E7
:1021700041F6CD60C0F6000000210090204600230B
:102180000191FFF799FD0DF21C4DBDE8F08F07AEF0
:1021900030464FF48071FFF787F841F64D28C0F6BE
:1021A000000844F2A771C0F600014046FFF758FC52
:1021B0004FF000094FF000704FF400754FF0000B26
:1021C000CAF80000032000F0B3FACBF3074000F098
:1021D000AFFACBF3072000F0ABFA002000F0A8FA2A
:1021E0004FF0FF37FF2000F0A3FAF1190137FF2F5E
:1021F0004870F7D1002000F0C7FC0028CAF8005052
:102200006DD10020325CFF2A54D131184A78FF2A60
:102210004BD18A78FF2A4AD1CA78FF2A49D10430A3
:10222000B0F5807FEED10BF5807564206843B5F57D
:10223000000F4FEAD05701D04F4508D944F2B8718A
:102240004046C0F600013A46FFF70AFCB9464FF295
:102250000000C0F27F0000F570608345AB464FF090
:1022600000704FF40075ABD341F64D28C0F600085E
:1022700044F2C661C0F600014046FFF7F1FB44F2AC
:10228000D141C0F600014046FFF7EAFB07AD284602
:102290004FF48061AA22FFF768F944F26C790026B6
:1022A0004FF0040BC0F600092FE0013002E00230CD
:1022B00000E0033000EB0B0341F64D2044F2635184
:1022C000C0F60000C0F60001FFF7CAFB41F64D2042
:1022D00044F25741C0F60000C0F600013BE741F66A
:1022E0004D2044F27F51C0F60000C0F600015A466E
:1022F000FFF7B6FBEAE74FF20000C0F27F0086422C
:1023000006F580560BF1040B48D2304600F07AFBFC
:10231000D0BB3046294600F0BDFA58BB06F58067B1
:102320003846294600F0B6FA18BB06F5006738466D
:10233000294600F0AFFAE0B906F54067384629466D
:1023400000F0A8FAA8B91BF03C0FD4D1584601F010
:10235000C9FE0021C3F6484101F0D8FE01F096FE07
:1023600002460B4640464946CDF800B0FFF778FBE1
:10237000C1E73E4641F64D2044F2D351C0F600007D
:10238000C0F60001324613E041F64D2044F2B95147
:10239000C0F60000C0F60001324609E041F64D20CB
:1023A00044F21371C0F60000C0F600014FF4005271
:1023B000FFF756FB41F64D2044F2B441C0F6000051
:1023C000C0F60001FFF74CFB28464FF48061FEF792
:1023D0006BFF4FF000084FF0007640F2FF3B4FF0EC
:1023E00000090020049016E041F64D2044F2A0516F
:1023F000C0F60000C0F600014A46FFF731FB08F1C5
:1024000001084FF20000C0F27F0000F540608145F6
:1024100009F5806961D20320CAF8006000F088F9EC
:10242000C9F3074000F084F9C9F3072000F080F9F0
:10243000002000F07DF94FF0FF37FF2000F078F921
:10244000E91901375F454870F7D1002000F09CFB87
:1024500000284FF40070CAF80000C5D10027002002
:1024600004E001200137B7F5806F13D0EE5DAA2E8E
:10247000F8D00028F5D141F64D2044F2327109EB35
:102480000702C0F60000C0F60001AA230096FFF77D
:10249000E7FAE6E7002818BF08F10108049E0136B4
:1024A000B006049616D1304601F01CFE0021C3F69A
:1024B000484101F02BFE01F0E9FD02460B4641F6D2
:1024C0004D2044F28C71C0F60000C0F60001009669
:1024D000FFF7C6FA4FF0007693E741F64D29C0F6B4
:1024E000000944F2AD61C0F600014846FFF7B8FAB2
:1024F00044F25971C0F6000148464FF40052FFF70C
:10250000AFFA404601F0EEFD0021C3F6484101F06C
:10251000FDFD01F0BBFD0D4644F2F761074600905A
:10252000C0F60001484642460195FFF799FA00219E
:10253000C4F2590100203A462B46C8F5005601F076
:10254000B7FC0B4644F2DB610090C0F60001484640
:1025500032460193FFF784FA44F27B41C0F6000152
:102560004846F8E510B540F27000C2F2000042F2B1
:102570002164D0E90023C0F6000444F29E61C0F655
:1025800000012046FFF76CFA44F22C6144F65C022D
:10259000C0F60001C0F600022046FFF761FA44F2DF
:1025A0001F6144F2F872C0F60001C0F60002204636
:1025B000FFF756FA44F2ED51C0F600012046AD2275
:1025C000FFF74EFA44F2CC71C0F600012046FFF747
:1025D00047FA44F60601C0F600012046FFF740FA2C
:1025E00044F2AA61C0F600012046FFF739FA44F22E
:1025F000E271C0F600012046BDE81040FFF730BA96
:1026000080B582B042F20162C0F600020021009261
:10261000052200230191FFF74FFB02B080BD0000AF
:10262000F0B581B00C4644F2E271C0F600010546F7
:10263000FDF78CFE40F20417C2F200073E6848B175
:1026400040F28400C2F2000030442946FDF75AFEF1
:10265000301907E040F28400C2F200003146FFF773
:1026600019FA0020386001B0F0BD000010B540F24A
:102670007000C2F2000042F22164D0E90023C0F6EB
:10268000000444F29E61C0F600012046FFF7E8F91D
:1026900044F22C6144F65C02C0F60001C0F6000270
:1026A0002046FFF7DDF944F21F6144F68B02C0F6C5
:1026B0000001C0F600022046FFF7D2F944F2ED51C6
:1026C000C0F600012046B322FFF7CAF944F2CC71EC
:1026D000C0F600012046FFF7C3F944F68001C0F6BA
:1026E00000012046FFF7BCF944F2AA61C0F60001E0
:1026F0002046FFF7B5F944F2E271C0F6000120462A
:10270000BDE81040FFF7ACB941F64D2044F2086136
:10271000C0F60000C0F60001FFF7A2B941F64D2057
:1027200044F21361C0F60000C0F60001FFF798B94B
:1027300010B582B040F6100EC4F2010E00224FF028
:10274000020C002313E000BF5EF8081C5EF8044C86
:10275000C1F3802141EA430304F4805141EA01417D
:10276000013281F48051082ACEF8001049D0C2F11C
:10277000070120FA01F1C9074FF4006108BF4FF0CB
:102780000061CEF80010CDF800C000BF00994C1ECB
:10279000009489B100BF00994C1E009461B100BF44
:1027A00000994C1E009439B100BF00994C1E009452
:1027B00011B100BFEAE700BF5EF8041C01F48051CC
:1027C00041EA014181F48051CEF80010CDF804C0F7
:1027D00001994C1E00290194B6D000BF01994C1EEE
:1027E00000290194B0D000BF01994C1E002901942A
:1027F000AAD000BF01994C1E00290194A4D000BFAB
:10280000E6E7D8B202B010BDF0B581B0B2F5807F76
:1028100001D901243AE014460D46064600F032F98B
:1028200008B1012432E040F61007C4F201074FF06E
:10283000007038600220FFF77BFFC6F30740FFF708
:1028400077FFC6F30720FFF773FFF0B2FFF770FFC3
:102850007CB14DB1013D00BF15F8010FFFF768FFD6
:10286000013CF9D105E000BFFF20FFF761FF013C0B
:10287000FAD14FF4007038600120012500F084F98E
:10288000044600F041F9002818BF2C46204601B04C
:10289000F0BD00002DE9F04F81B0834600F5806067
:1028A000B0F5000F4FF001006FD889460021B1EB61
:1028B000DB5F6AD1B9F1000F67D040F6FF700BF211
:1028C000FF352BEA00066FF30B0540F6100AAE4207
:1028D000C4F2010A5CD94FF4806500BF5FFA8BF443
:1028E00034B1C4F58078A84588BFA84606E000BF8B
:1028F0004FF48078B5F5807F38BFA8461FFA88F777
:10290000584649463A46FFF77FFF002875D14FF4F5
:1029100080764FF00070B7F5807F38BF3E46CAF82A
:1029200000000320FFF704FFCBF30740FFF700FF91
:10293000CBF30720FFF7FCFE2046FFF7F9FE6EB150
:1029400040F28130C2F20000441E00BFFF20FFF7BA
:10295000EFFEB8F1010804F8010FF7D1002000F0F4
:1029600013F900284FF40070CAF8000045D140F276
:1029700081314846C2F200013246FDF797FCE0BBC8
:10298000BB44ED1BB944A9D1002001B0BDE8F08FD4
:102990004FF6FF7702E000BFAE429CD826EA070858
:1029A000A84507D9304600F02DF830BB06F5805613
:1029B000F2E700BF00F066F8F8B94FF00070CAF80F
:1029C0000000D820FFF7B4FEC6F30740FFF7B0FEC3
:1029D0000020FFF7ADFE0020FFF7AAFE4FF40070C5
:1029E000CAF80000032000F0CFF8044600F08CF88D
:1029F000204302D108F58036CEE7012001B0BDE8C2
:102A0000F08F00002DE9F041044600F03BF800286B
:102A10001CBF0120BDE8F08140F61006C4F201069B
:102A20004FF0007705203760FFF782FEFF20FFF7A9
:102A30007FFE4FF4007810F01C0F4FF00105C6F830
:102A4000008002D02846BDE8F08120203760FFF7E3
:102A50006FFEC4F30740FFF76BFEC4F30720FFF7D8
:102A600067FEE0B2FFF764FE0220C6F8008000F0C7
:102A70008BF8044600F048F8002808BF2546284691
:102A8000BDE8F0812DE9F04381B040F61004C4F2B6
:102A900001044FF000780620C4F80080FFF748FEDC
:102AA0004FF4007940F27007C4F80090C2F20007BA
:102AB000D7E900560520C4F80080FFF739FEFF2053
:102AC000FFF736FEC4F80090D7E90012491BB24167
:102AD0000B3972F10001024607D202F0030002280E
:102AE000E8D1002001B0BDE8F08341F64D2044F26A
:102AF0000A51C0F60000C0F60001FEF7B1FF012048
:102B000001B0BDE8F08300002DE9F04381B040F64C
:102B10001004C4F201044FF000780420C4F80080CF
:102B2000FFF706FE4FF4007940F27007C4F80090FA
:102B3000C2F20007D7E900560520C4F80080FFF76D
:102B4000F7FDFF20FFF7F4FDC4F80090D7E900126D
:102B5000491BB2410B3972F10001024605D29007C0
:102B6000EAD1002001B0BDE8F08341F64D2044F2E7
:102B70003651C0F60000C0F60001FEF771FF0120DB
:102B800001B0BDE8F08300002DE9F04F81B0804630
:102B900040F2700944F2AC30C2F20009C0F6000005
:102BA00040F61005D9E9007450F82860C4F2010518
:102BB0004FF0007A4FF4007B0520C5F800A0FFF726
:102BC000B7FDFF20FFF7B4FDC007C5F800B017D070
:102BD000D9E90001C31B61EB0400991B70F10000EF
:102BE000EAD341F64D2044F27A61C0F60000C0F607
:102BF00000014246FEF734FF012001B0BDE8F08F2E
:102C0000002001B0BDE8F08F86B042F20006C4F2A9
:102C1000020631684EF60C5041F01001CEF2000071
:102C2000316001684FF6FF02114040F20032C0F2FD
:102C3000FA52114340F2000C0160C2F2000CDCF8C1
:102C4000001044F6D353C1F26203A1FB03174FF007
:102C5000FF3101EB97150027B7EB156F21D14EF22D
:102C60001004CEF200046560F025C5750725A76045
:102C700025600568C5F3022585F00704042C28BFEC
:102C80000424033D38BF3D46A1400F2727EA010138
:102C9000A9400901C17540F26801C2F20001012793
:102CA0000F7041F20401C4F202014F69022447F09F
:102CB00001074F614F6907F001070297029F8F6973
:102CC00047F080578F618F6907F080570297029F06
:102CD0000427C4F201073D6864F31A653D600F687C
:102CE00007F00C07042F40F26C07C2F2000728D14E
:102CF00051F8045C6025C4F242250124C5F8204443
:102D00003C680A6A92074FD43A68121B022A00F202
:102D1000E6800A6A920747D43A68121B022A00F238
:102D2000DE800A6A92073FD43A68121B022A00F238
:102D3000D6800A6A920737D43A68121B022AE0D971
:102D4000CDE00D6805F00C05082D02D10D68ED03EE
:102D5000CED451F8045C45F4803541F8045C3D68FC
:102D600051F8044CA403C5D43C68641B642C00F2E5
:102D7000B68051F8042C9203BCD43A68521B642AE2
:102D800000F2AD8051F8042C9203B3D43A68521B80
:102D9000642A00F2A48051F8042C9203AAD43A6861
:102DA000521B642ADCD99AE0DCF80020A2FB032441
:102DB000620A029200BF029A541E02947AB100BFC6
:102DC000029A541E029452B100BF029A541E0294F9
:102DD0002AB100BF029A541E002A0294EAD10A685E
:102DE00002F00C02082A28D10A6802F47412B2F523
:102DF000E81F74D1326812F0060F09D1326802253B
:102E000065F302023260326802F00702022A0FD133
:102E10000A6842F4E0620A600A6842F460520A609A
:102E20000A6822F0F0020A6051F8042C92015AD488
:102E3000EFF3108072B600BFFEE700222A603C6804
:102E400051F8042C92011CD53A68121B022A46D86C
:102E500051F8042C920114D53A68121B022A3ED86C
:102E600051F8042C92010CD53A68121B022A36D86C
:102E700051F8042C920104D53A68121B022ADFD9BA
:102E80002DE00A6822F400320A600A6822F4741203
:102E900002F5E8120A6001222A603D6851F8042C0C
:102EA0009201A7D43A68521B022A18D851F8042C70
:102EB00092019FD43A68521B022A10D851F8042C70
:102EC000920197D43A68521B022A08D851F8042C70
:102ED00092013FF58FAF3A68521B022ADED9EFF319
:102EE000108072B6FEE70A68022565F301020A60E7
:102EF0003D6841F288340A6802F00C02082A22D0A8
:102F00003A68521BA2423FF693AF0A6802F00C02E5
:102F1000082A18D03A68521BA2423FF689AF0A68C5
:102F200002F00C02082A0ED03A68521BA2423FF669
:102F30007FAF0A6802F00C02082A04D03A68521BDC
:102F4000A242D8D974E7326802F00702032A0AD3F2
:102F50003268022565F302023260326802F007022D
:102F6000022A7FF465AF0A68042666F30A220A6023
:102F70000A6841F2002622F460520A600C68C0F22E
:102F80007A0604F00C02082A1AD144F2C035C4F3C0
:102F90008342C0F60005AD5CE20306D440F60012A1
:102FA000C0F23D0205FB02F60AE00A6844F2A834CA
:102FB000C2F34042C0F60004A25C6E43B6FBF2F6D8
:102FC0000A6844F2D035C2F30312C0F60005AA5CC9
:102FD0004FF0000B26FA02F2A2FB03364FF0FF334C
:102FE00003EB9613BBEB136FCCF800202AD140F211
:102FF0006802C2F200024EF210051678CEF2000509
:103000006B60F023C3750723012EC5F808B02B6051
:1030100018D103684FF0FF35C3F3022383F007068E
:10302000042E28BF0426033B05FA06F64FF00F05D1
:1030300038BF002325EA060606FA03F31B01C37511
:1030400001201070486940F6000440F0100048610B
:103050004869C4F2010400F0100002900298486927
:1030600002AE40F020004861486943F2000A00F0D7
:103070002000029002984869012540F0080048614C
:103080004869C4F2000A00F00800029002984869FA
:1030900040F00400486148694FF0406100F00400CE
:1030A000029002984FF40050C4F81008C4F81014AD
:1030B0004FF0F051216102900320059004F500606B
:1030C0003146CDE90355FEF76FFA4FF4406002A98F
:1030D00004F5806881E821084FF002094046314636
:1030E000CDF81490FEF760FA4FF48050CDE9020B52
:1030F00040463146CDF810B0FEF756FA4FF4F05086
:1031000002A981E8210820463146CDF81490FEF747
:103110004BFA40F28440C2F20000C0F800A040F236
:10312000E44040F2E841C2F20000C2F200014CF675
:10313000CC4205700D70CAF8002045F25552CAF80D
:1031400000200078002818BF0420CAF8040008787E
:10315000002818BF4FF47A70CAF808003868DAF807
:103160000C10890713D041F23D3103E0DAF80C204E
:1031700092070CD03A68121A8A42F7D3DAF80C2078
:103180009207F3D0EFF3108072B600BFFEE74AF665
:10319000AA20CAF8000040F28C1044F6360140F232
:1031A0003422C2F200000327C0F60001C2F200027E
:1031B000076147618161C2614FF48072002602623B
:1031C00086624662C662016640F23431C2F2000194
:1031D0004166532186660667C666466701704521CB
:1031E000472241708270C2700171522120224171C8
:1031F0008271C1715421017241728672C672067366
:1032000046738673C67341F6CD60C0F60000009029
:1032100040F23830C2F200004FF47A720023019677
:10322000FEF74AFD41F6C150C0F60000009040F2A2
:103230005030C2F20000142200230196FEF73CFD3C
:1032400042F20160C0F60000009040F26830C2F225
:103250000000052200230196FEF72EFD40F28C4669
:10326000C2F2000640F288403178C2F200000068E5
:10327000002918BF4FF40051CDE9021502A9CDE98C
:103280000457FEF791F940F29040C2F20000317805
:103290000278002918BF4FF40051002A08BF090422
:1032A000C4F81018007840F2944125EA0000C2F2F8
:1032B0000001087040F2C84041F63161C2F20000DE
:1032C000C0F60001016040F2D04042F26D61C2F2EE
:1032D0000000C0F60001016040F2D84042F26551A2
:1032E000C2F20000C0F6000101604FF4806B1126AD
:1032F00002A94046CDF808B0CDE903650597FEF771
:1033000053F94FF4006902A94046CDE90296CDE990
:103310000457FEF749F902A94046CDE902B6CDE9C6
:103320000457FEF741F902A94046CDE90296CDE9DE
:103330000457FEF739F940F2DC4042F20971C2F25B
:103340000000C0F60001016040F2E04042F21D7151
:10335000C2F20000C0F60001016002A92046CDE9DA
:103360000295CDE90457FEF71FF902A92046CDE9E1
:1033700002B5CDE90457FEF717F94FF4805A02A9B8
:103380002046CDE902A5CDE90457FEF70DF94FF42B
:10339000007602A92046CDE90265CDE90457FEF783
:1033A00003F94FF0805802A92046C4F81080266126
:1033B000CDE90295CDE90457FEF7F6F802A92046BB
:1033C000CDE902A5CDE90457FEF7EEF802A92046A3
:1033D000CDE90265CDE90457FEF7E6F802A92046DB
:1033E000C4F810802661CDE90295CDE90457FEF7B7
:1033F000DBF802A92046CDE902B5CDE90457FEF776
:10340000D3F802A92046CDE902A5CDE90457FEF77D
:10341000CBF802A92046CDE90265CDE90457FEF7B5
:10342000C3F84FF00070C4F81080266120619F201F
:10343000FFF77EF9FF20FFF77BF9FF20FFF778F910
:10344000FF20FFF775F9266140F28814C2F20004EC
:10345000216840F27005C2F2000500E0014608460E
:1034600000294FF00001FAD0D5E9006702E000BF63
:10347000084679B1D0E90212711A77EB0201EDD357
:1034800002690168002A2160F2D0416990472168F1
:10349000EEE700BF0021E2E75FEA400C08BF91F0D1
:1034A000000F4FEA8C234FEAC12243EA51514FEA01
:1034B0001C5018BF00F5F0404FEA300018BF41F033
:1034C00000415FEA6C5C00F02980BCF1FF3F08BF5F
:1034D00040F080407047130C06BF12044FF0100CF0
:1034E0004FF0000C130E04BF12020CF1080C130F66
:1034F00004BF12010CF1040C930F04BF92000CF1F5
:10350000020CD30F04BF52000CF1010C11464FF016
:103510000002A0F11F00A0EB0C00704711F0004F5B
:1035200008BF704731F000413FF4D5AF0B0C06BF28
:1035300009044FF0100C4FF0000C0B0E04BF0902F1
:103540000CF1080C0B0F04BF09010CF1040C8B0FDC
:1035500004BF89000CF1020CCB0F04BF49000CF131
:10356000010CCCF1200322FA03F341EA030102FA31
:103570000CF2A0EB0C0000F10100704723F07F4734
:1035800020F07F4C80EA030000F00040ACEB070322
:1035900003F57C5303F1FF032DE9804909B44FEA99
:1035A000144324EA03484FEA154B25EA0B4E0FF269
:1035B000042606EB13273E7803FB0667C7F50007D2
:1035C00007FB06F64FEAD64606F102064FEA5437E5
:1035D00007FB066CCCF1005C4FEA1C472CEA074C59
:1035E0000CFB06F507FB06F404EB15464FEA9616AE
:1035F00049085FEA320234BF00204FF000404FEA32
:10360000D13706FB07FC4FEA1C4C0CFB0BF7D21B17
:1036100003FB0CF761EB07010CFB0EF7B0EB074067
:1036200072EB17420CFB08F734BFA2EB0742B2EB78
:10363000074261EB17414FEA0C444FEA910706FB42
:1036400007FC4FEA1C4C0CFB0BF7B0EBC74072EBCE
:10365000573203FB0CF734BFA2EBC742B2EBC742B1
:1036600061EB57310CFB0EF7B0EBC70072EB5772F2
:103670000CFB08F734BFA2EBC702B2EBC70261EB49
:1036800057714FEA816141EA92114FEA826242EA40
:1036900090124FEA806004EBCC04039F4FEAD137CD
:1036A00006FB07FC4FEA1C4C0CFB0BF7D21B03FB81
:1036B0000CF761EB07010CFB0EF7B0EB074072EB68
:1036C00017420CFB08F734BFA2EB0742B2EB0742EC
:1036D00061EB17414FEA8C5504EB9C244FEA9107AC
:1036E00006FB07FC4FEA1C4C0CFB0BF7B0EBC7408A
:1036F00072EB573203FB0CF734BFA2EBC742B2EBBD
:10370000C74261EB57310CFB0EF7B0EBC70072EB11
:1037100057720CFB08F734BFA2EBC702B2EBC7022B
:1037200061EB57714FEA816141EA92114FEA82627F
:1037300042EA90124FEA806015EB4C2544F10004F8
:103740004FEAD13706FB07FC4FEA1C4C0CFB0BF78A
:10375000D21B03FB0CF761EB07010CFB0EF7B0EB80
:10376000074072EB17420CFB08F734BFA2EB07428D
:10377000B2EB074261EB17414FEA813141EA9241D6
:103780004FEA823242EA90424FEA80304FEA0C76AA
:1037900015EB1C1544F1000448EA03434EEA0B48BC
:1037A0004FF0000EB2EB080C71EB030724BF62462A
:1037B00039464EEB0E0E4FF0000B001852414941B6
:1037C0004BEB0B0BB2EB080C71EB03077BF1000B1F
:1037D00024BF624639464EEB0E0E4FF0000B001828
:1037E000524149414BEB0B0BB2EB080C71EB030759
:1037F0007BF1000B24BF624639464EEB0E0E51EAB8
:10380000020718BF46F0010616EB0E7655F10002CE
:1038100054F1000103D5BDE88901BDE80088BDE889
:103820008901BDE80048B619524141EB0101A3F1FD
:103830000103704780807F7E7D7C7B7A7978777604
:1038400076757473727171706F6E6E6D6C6C6B6A7D
:103850006A6968686766666564646363626161601B
:10386000605F5F5E5E5D5D5C5C5B5B5A5A59595898
:103870005857575656555555545453535252525102
:10388000515050504F4F4F4E4E4D4D4D4C4C4C4B58
:103890004B4B4A4A4A49494948484847474747469F
:1038A00046464545454444444443434343424242DB
:1038B000424141419C46002B30D477002BD04FEA47
:1038C00037071CB503B44FF010004FF01001BAF1E8
:1038D000000F06D0BCF1000FDCBF40F0080040F044
:1038E00008014FF000000FBCBDE810400BF1010BC8
:1038F000BBF1010F08BF5FEA170722BF12F10102F7
:1039000011F101014FF0004143F1000300F00040CC
:1039100043EA00007047F9D35708D0E746EA064665
:103920004FEA164613F1400F1FDD13F1200FDFBFE2
:1039300016430A46002120335B42BED0C3F1200764
:1039400046EA06464FEA164602FA07F746EA07062F
:1039500022FA03F2C3F1200701FA07F742EA07024D
:1039600021FA03F14FF00003A7E746EA020646EA10
:1039700006464FEA164646EA0106BCBF46EA064638
:10398000360C4FF000034FF000024FF0000194E7B7
:103990002DE9804C70B49A46934691E8380007C8E8
:1039A00031EA400C48BF34EA430C03D5FFF7E6FD8B
:1039B000FFF780FFF0BCBDE8008C2DE9804C70B4AF
:1039C0009A46934691E8380007C810F0804F08BF28
:1039D00013F0804F03D100F005F8FFF76BFFF0BC48
:1039E000BDE8008C20F07F4723F07F4C80EA030085
:1039F00000F0004007EB0C03A3F57C53A3F1FE039A
:103A000092F0000F00F0B38095F0000F00F0778087
:103A10002DE901494FEA114021EA00484FEA1446D6
:103A200024EA064700FB06FC08FB06F607FB08F83D
:103A300018EB06484CEB164C00FB07F718EB074851
:103A40004CEB17404FEA124B22EA0B4E4FEA154659
:103A500025EA06470BFB06FC0EFB06F607FB0EFEEF
:103A60001EEB064E4CEB164C0BFB07F71EEB074EFE
:103A70004CEB174B18EB0B0840F1000018EB0E0B4A
:103A800058EB000840F100008F1A4FF000014FF092
:103A900000063CBFC943661B14BFB5EB040C0021F4
:103AA0003CBFC943F61B4FEA174427EA04454FEAD7
:103AB0001C472CEA074C04FB076205FB07F70CFBCD
:103AC00005F616EB074642EB174204FB0CFC16EB1F
:103AD0000C4642EB1C421BEB060658EB020241412E
:103AE0004EEA8E0E46EA9E0601D5BDE80189B6195A
:103AF000524141EB0101A3F10103BDE801894FEA05
:103B0000144524EA05464FEA114721EA074C05FB14
:103B100007F406FB07F70CFB06F111EB074144EB3A
:103B2000174405FB0CFC11EB0C4144EB1C444FEA21
:103B3000124722EA074C05FB07F206FB07F70CFBCE
:103B400006F616EB074642EB174205FB0CFC16EB9C
:103B50000C4642EB1C456A1854F1000148BF7047FF
:103B6000B619524141EB0101A3F10103704795F0F1
:103B7000000F37D04FEA114221EA02464FEA1447BC
:103B800024EA074C02FB07F106FB07F70CFB06F4DF
:103B900014EB074441EB174102FB0CFC14EB0C4403
:103BA00041EB1C414FEA154725EA074C02FB07F59C
:103BB00006FB07F70CFB06F616EB074645EB174529
:103BC00002FB0CFC16EB0C4645EB1C42121951F1A2
:103BD000000148BF7047B619524141EB0101A3F102
:103BE000010370474FEA144524EA05464FEA11479E
:103BF00021EA074C05FB07F106FB07F70CFB06F271
:103C000012EB074241EB174105FB0CFC12EB0C4297
:103C100051EB1C414FF0000648BF7047921841EB32
:103C20000101A3F101037047490050EAC12018BF08
:103C300004204A0D18BF40F0010040F2FF72B2EBC1
:103C4000515F08BF40F00200012808BF05207047FF
:103C500030380A2801D20120704700207047000048
:103C600010B500290AD00878002807D00548784404
:103C7000FCF76CFB002801D0002010BD02487844FE
:103C800010BD0000560C00004E0C000010B50029BD
:103C90000AD00878002807D005487844FCF756FB7E
:103CA000002801D0002010BD0248784410BD00005B
:103CB000460C00003E0C000010B591EA030F48BF0F
:103CC00083F0004300F1FC80841A71EB030C05D2F1
:103CD000121943EB0C03001B61EB0C014FEA11546A
:103CE000A4EB135CDFF81CE11EEA430F18BF9EEA49
:103CF000445F00F0748021EA045123EA0E0343F488
:103D00008013DCF1200E32D322FA0CFE10EB0E00F1
:103D100023FA0CFE41EB0E01CCF1200E03FA0EFE4D
:103D200010EB0E00CCF1200E51F10001B1F5801F17
:103D300032D201EB045112FA0EF2BDE8104058BF26
:103D40007047401C38BF5FEA420218BF7047002826
:103D500014BF20F0010041F100014FEA410313F5C7
:103D6000001F38BF7047A1F1C04100F09BB8012A85
:103D700043EB0302ACF1200CDCF11F0E32BF4FF01D
:103D8000000E23FA0CF310EB030041EB0451B4EBEB
:103D9000115FD0D0A1EB045101F58011490801EB6E
:103DA00004515FEA30000ED350F1000038BF12FA20
:103DB0000EFE08D1BDE81040C9E7401C38BF5FEADD
:103DC0004202CAD1C3E7BDE810404FEA410313F5F0
:103DD000001F38BF7047A1F1C04100F063B89EEAF0
:103DE000445F08D011EA5E0FBDE8104004BF01F047
:103DF000004100207047BDE8104070B500F004F8A5
:103E000064FBBE3E0000E0FF0EF1020E2EF0030E3A
:103E10005EF8046B364205D4012A43EB030515F521
:103E2000001F12D8012841EB010C1CF5001F0CD813
:103E30000ED14FEAD17C0CEB4C0C0CF1020C15F5B9
:103E4000001F08BF4CEBD37C04E04FF0080C01E0EE
:103E50004FEAD37C0CEB4C0526FA05F606F0070674
:103E6000B6F1040C06D20EEB860CBDE870404CF0A7
:103E7000010C6047DFE80CF0090B02024FF0004133
:103E8000A1F500214FF0000070BD19461046012831
:103E900051EB010418BFD4F5001484BF002001F0D9
:103EA000004170BD0808A0F500114FEA31017047CC
:103EB00010B591EA030F48BF83F000433FF504AF0C
:103EC000841A71EB030C07D28CF0004C121943EBEF
:103ED0000C03001B61EB0C014FEA1154A4EB135CC3
:103EE000DFF8A4E11EEA430F18BF9EEA445F00F02A
:103EF000B48021EA045123EA6E035242C3EB6E03FD
:103F000038BF5B1EDCF1200E25D322FA0CFE10EB2D
:103F10000E0043FA0CFE41EB0E01CCF1200E03FA29
:103F20000EFE10EB0E00CCF1200E51F1000129D451
:103F300001EB045112FA0EF2BDE8104058BF704771
:103F4000401C1CBFB2F1004F704700280CBF491C39
:103F500020F00100704712EB020E43EB030218BF82
:103F60004FF0010E4EEA4202ACF1200CDCF11E0EC5
:103F700056D943FA0CFE10EB0E00CCF11E0E51F197
:103F8000FF31D5D50EF1010E12FA0EFE404141EB84
:103F9000010101EB445C5FEA5C5C10D901EB045168
:103FA00010EBDE7038BFBEF1004FBDE8104018BF07
:103FB000704700280CBF491C20F00100704734D224
:103FC0004FEAD42C24F4006411F500111BD0B1FA8F
:103FD00081F20B3AA41AA41ED2F12003914030FAC8
:103FE00003F31943904001EBCC7101EB0451002C19
:103FF000BDE81040A8BF704701F1C04101F0004189
:104000004FF000007047B0FA80F310FA03F102D1CC
:10401000BDE810407047E41A173C4805C90AE2E7BA
:1040200001EB0451BDE81040704749104FEA3000E1
:1040300001EB0451BDE8104002E04FF00001704771
:104040004A0008BF0042F8D0B2F5001F28BF7047F1
:1040500001F000414FF0000070479EEA445F07D036
:1040600011EA5E0FBDE8104004BF00210020704738
:10407000BDE8104070B5FFF7C7FE00BF40DFF63E59
:10408000104683F0004170470000E0FF43004FEA14
:10409000D30C4FEA3C0C43401FBF40070CF160516A
:1040A00013F0FE4F70471CF0006F03D10CF000417D
:1040B000002070470CF0004343EA507040EACC0007
:1040C00010B500F0A4F800BF000000924FEA000114
:1040D000FFF7E8BE4FF00041A1F500214FF00000CE
:1040E00070470000B0FA80F310FA03F2C3F19D03A9
:1040F0000AD0D90501EB1220530638BF704700F1F2
:10410000010008BF20F00100704700004FF47F0C51
:104110001CEAD0121EBF1CEAD11392EA0C0F93EADC
:104120000C0F00F0478090EA010F48BF42F4807204
:104130004FF0004C4CEA00204CEA012102EB030254
:10414000A0FB0113A2F50002002918BF43F00103F0
:104150005B0028BF4FEA330342EB22425FEA132C95
:104160004CEBC2502EBFBCEB436FB2F57C0F7047D7
:104170004FEA036CBCF1004F08BF20F00100B2F51C
:104180007C0F38BF70470BD582F0FF0212F5803FDD
:10419000C8BF704700F1C040D8BF00F00040704772
:1041A00000F5000C5FEA4C0C48BF7047B0F1C0400E
:1041B00000F073B80CEAD11390EA010F48BF42F443
:1041C0008072624538BF634504D280EA010000F086
:1041D0000040704710B500F01AF800BF8900013E9A
:1041E00000F007B800F009B85FEA410C5FEA1C6C08
:1041F00008D080EA010000F050B85FEA400C5FEAA6
:104200001C6CF6D14FF00040A0F5800070470EF115
:10421000020E2EF0030E5EF8044B244204D44FEA43
:104220004102B2F17F4F11D84FEA4003B3F17F4F03
:104230000CD80ED14FEAD07C0CEB4C0C0CF1020CDC
:10424000B2F17F4F08BF4CEBD17C04E04FF0080C7B
:1042500001E04FEAD17C0CEB4C0324FA03F404F0A8
:104260000704B4F1040C06D20EEB840CBDE8104038
:104270004CF0010C6047DFE80CF0070802024FF039
:104280000040A0F5800010BD0846420018BFD2F1E2
:10429000807288BF00F0004010BDFF2141EAD0507D
:1042A000C0057047FCF7FCBCFCF730BE0000000006
:1042B000000000003031323334353637383941426E
:1042C0004344454640305800303132333435363778
:1042D0003839616263646566403078000400000824
:1042E0000000000000000002000100001030313228
:1042F0003334353637383961626364656678700007
:10430000303132333435363738394142434445460B
:104310005850000002400000000000A00000000013
:1043200005400000000000C8000000000C40000034
:104330000000409C00000000194000000020BCBEAE
:104340000000000034400000BFC91B8E00000004C4
:10435000B5400000504BCFD06607E2CF010000000F
:104360006C4100003E8251AADFEEA734010000003C
:10437000D9420000DCB5A0E23A301F97FFFFFFFFF3
:10438000B4450000FD25A0C8E9A3C14FFFFFFFFF12
:10439000FF3F00000000008000000000FF3F000021
:1043A0000000008000000000010200000A00000080
:1043B0000A000000F4010000E8030000307500006E
:1043C00002030405060708090A0B0C0D0E0F101056
:1043D00000000000000000000102030406070809B5
:1043E0005B4552524F525D2043686970206572618F
:1043F0007365206661696C6564210D0A005B455236
:10440000524F525D20536563746F72206572617301
:1044100065206661696C6564210D0A005B45525236
:104420004F525D2050616765207772697465206620
:1044300061696C6564210D0A005B4552524F525D03
:1044400020526561642076657269667920666169CB
:104450006C6564210D0A005B4552524F525D20434A
:104460006869702065726173652076657269667926
:10447000206661696C6564210D0A005B54455354E4
:104480005D20416C6C20746573747320636F6D7074
:104490006C65746564210D0A005B332F355D204621
:1044A000756C6C20636869702065726173652E2E6F
:1044B0002E0D0A005B352F355D2044617461207636
:1044C0006572696669636174696F6E2E2E2E0D0ABE
:1044D000005B342F355D2042756C6B2077726974F8
:1044E0006520746573742E2E2E0D0A005B322F35F5
:1044F0005D2053696E676C6520736563746F72200D
:10450000746573742E2E2E0D0A005B4552524F5265
:104510005D205772697465456E61626C65207469CF
:104520006D656F7574212073746174653D307825F5
:104530003032580D0A005B4552524F525D2057727F
:1045400069746544697361626C652074696D656F37
:104550007574212073746174653D3078253032584C
:104560000D0A000A5B4552524F525D2030782530CB
:10457000325820402030782530366C580D0A000A19
:104580005B4552524F525D205265616420666169FD
:104590006C656420402030782530366C580D0A0058
:1045A00052656164206661696C65642061742030C5
:1045B000782530366C580D0A0045726173652066A7
:1045C00061696C65642061742030782530366C58E0
:1045D0000D0A005772697465206661696C65642014
:1045E00061742030782530366C580D0A004C696EA5
:1045F0006509093A2025640D0A0068656C6C6F2016
:10460000776F726C640D0A007772697465206F6B46
:104610000D0A007772697465206572720D0A004692
:10462000756E6309093A2025730D0A0046696C65A9
:1046300009093A2025730D0A0057726974652D52D5
:104640006561643A202530325820253032582025C3
:1046500030325820253032582025730D0A005B3146
:104660002F355D20436869702049443A2030782511
:1046700030366C582025730D0A0054696D656F75CE
:104680007421204F70547970653A25642C20456C54
:1046900061707365643A256C756D730D0A00546919
:1046A000636B09093A20256C6C750D0A000A566582
:1046B00072696669636174696F6E20636F6D706C97
:1046C000657465210A000D56657269667920457228
:1046D0006173652031303025250A00476F6F6420F3
:1046E000626C6F636B733A2020256C752028252E31
:1046F00032662525290A004572726F7220626C6F3E
:10470000636B733A20256C752028252E326625258B
:10471000290A000A46696C6C20636F6D706C6574C1
:1047200065642120546F74616C3A20256C754B428E
:104730000A004572724030782530366C583A206550
:1047400078706563742030782530325820676F7434
:10475000203078253032580A00546F74616C206222
:104760006C6F636B733A20256C750A0050726F672B
:10477000726573733A20252E3166252520285772DD
:104780006F746520256C754B42290D005665726962
:104790006679696E673A20252E3166252520282501
:1047A0006C754B42290D0056657269667920457219
:1047B00061736520302525000D5665726966792084
:1047C000457261736520256C75252500496E666FFD
:1047D00009093A004F4B004641494C004552524F9F
:1047E00052005F5F7A5F64656275675F6172725FD6
:1047F00061646420656E64006465766963655F6BFF
:1048000065795F30305F72656C65617365007469EE
:104810006D65725F746573745F63616C6C62616314
:104820006B006465766963655F6B65795F30305FE7
:10483000636C69636B005465726D696E616C002E08
:104840002E2F6273702F6273705F7461736B5F637E
:10485000616C6C6261636B2E637070002E2E2F642E
:1048600065766963652F6465766963655F6B6579F5
:104870002F6465766963655F6B65792E6370700080
:104880006C6F6E6720707265737300646576696320
:10489000655F6B65795F30305F6C6F6E675F7072FC
:1048A00065737300F849000800000020080000004C
:1048B00028010008004A000808000020E80A00005B
:1048C000440100081C00000043000000F8FFFFFF47
:1048D0000C0000000E0000000F0000002E00000081
:1048E0001001000043000000F8FFFFFF00404040BF
:1048F00040404040404041414141414040404040B3
:10490000404040404040404040404040400502025E
:10491000020202020202020202020202022020201D
:104920002020202020202002020202020202909079
:104930009090909010101010101010101010101077
:1049400010101010101010100202020202028888CB
:1049500088888888080808080808080808080808D7
:1049600008080808080808080202020240000000BF
:104970000000000000000000000000000000000037
:104980000000000000000000000000000000000027
:104990000000000000000000000000000000000017
:1049A0000000000000000000000000000000000007
:1049B00000000000000000000000000000000000F7
:1049C00000000000000000000000000000000000E7
:1049D00000000000000000000000000000000000D7
:1049E00000000000000000000000000000000000C7
:1049F000E5CFFFFF0000000000127A000000000079
:04000005080000ED02
:00000001FF
